{
  "contractName": "TicTokenPayroll",
  "abi": [
    {
      "inputs": [
        {
          "internalType": "string",
          "name": "_description",
          "type": "string"
        },
        {
          "internalType": "contract TicToken",
          "name": "_tokenContract",
          "type": "address"
        }
      ],
      "payable": false,
      "stateMutability": "nonpayable",
      "type": "constructor"
    },
    {
      "anonymous": false,
      "inputs": [
        {
          "indexed": false,
          "internalType": "address",
          "name": "_accountAddress",
          "type": "address"
        }
      ],
      "name": "FireEmployee",
      "type": "event"
    },
    {
      "anonymous": false,
      "inputs": [
        {
          "indexed": false,
          "internalType": "uint256",
          "name": "_id",
          "type": "uint256"
        },
        {
          "indexed": false,
          "internalType": "address",
          "name": "_accountAddress",
          "type": "address"
        },
        {
          "indexed": false,
          "internalType": "uint256",
          "name": "_salary",
          "type": "uint256"
        },
        {
          "indexed": false,
          "internalType": "uint256",
          "name": "_payday",
          "type": "uint256"
        }
      ],
      "name": "NewEmployee",
      "type": "event"
    },
    {
      "anonymous": false,
      "inputs": [
        {
          "indexed": false,
          "internalType": "address",
          "name": "_accountAddress",
          "type": "address"
        },
        {
          "indexed": false,
          "internalType": "uint256",
          "name": "_salary",
          "type": "uint256"
        }
      ],
      "name": "PayEmployee",
      "type": "event"
    },
    {
      "anonymous": false,
      "inputs": [
        {
          "indexed": false,
          "internalType": "address",
          "name": "_accountAddress",
          "type": "address"
        },
        {
          "indexed": false,
          "internalType": "uint256",
          "name": "_newSalary",
          "type": "uint256"
        }
      ],
      "name": "SalaryChange",
      "type": "event"
    },
    {
      "constant": true,
      "inputs": [],
      "name": "admin",
      "outputs": [
        {
          "internalType": "address payable",
          "name": "",
          "type": "address"
        }
      ],
      "payable": false,
      "stateMutability": "view",
      "type": "function"
    },
    {
      "constant": true,
      "inputs": [],
      "name": "description",
      "outputs": [
        {
          "internalType": "string",
          "name": "",
          "type": "string"
        }
      ],
      "payable": false,
      "stateMutability": "view",
      "type": "function"
    },
    {
      "constant": true,
      "inputs": [
        {
          "internalType": "uint256",
          "name": "",
          "type": "uint256"
        }
      ],
      "name": "employeeIndex",
      "outputs": [
        {
          "internalType": "uint256",
          "name": "id",
          "type": "uint256"
        },
        {
          "internalType": "address",
          "name": "accountAddress",
          "type": "address"
        },
        {
          "internalType": "uint256",
          "name": "salary",
          "type": "uint256"
        },
        {
          "internalType": "uint256",
          "name": "payDay",
          "type": "uint256"
        }
      ],
      "payable": false,
      "stateMutability": "view",
      "type": "function"
    },
    {
      "constant": true,
      "inputs": [
        {
          "internalType": "address",
          "name": "",
          "type": "address"
        }
      ],
      "name": "employeeList",
      "outputs": [
        {
          "internalType": "uint256",
          "name": "id",
          "type": "uint256"
        },
        {
          "internalType": "address",
          "name": "accountAddress",
          "type": "address"
        },
        {
          "internalType": "uint256",
          "name": "salary",
          "type": "uint256"
        },
        {
          "internalType": "uint256",
          "name": "payDay",
          "type": "uint256"
        }
      ],
      "payable": false,
      "stateMutability": "view",
      "type": "function"
    },
    {
      "constant": true,
      "inputs": [],
      "name": "lastPay",
      "outputs": [
        {
          "internalType": "uint256",
          "name": "",
          "type": "uint256"
        }
      ],
      "payable": false,
      "stateMutability": "view",
      "type": "function"
    },
    {
      "constant": true,
      "inputs": [],
      "name": "name",
      "outputs": [
        {
          "internalType": "string",
          "name": "",
          "type": "string"
        }
      ],
      "payable": false,
      "stateMutability": "view",
      "type": "function"
    },
    {
      "constant": true,
      "inputs": [],
      "name": "tokenContract",
      "outputs": [
        {
          "internalType": "contract TicToken",
          "name": "",
          "type": "address"
        }
      ],
      "payable": false,
      "stateMutability": "view",
      "type": "function"
    },
    {
      "constant": false,
      "inputs": [
        {
          "internalType": "string",
          "name": "_description",
          "type": "string"
        }
      ],
      "name": "changeDescription",
      "outputs": [],
      "payable": false,
      "stateMutability": "nonpayable",
      "type": "function"
    },
    {
      "constant": false,
      "inputs": [
        {
          "internalType": "address",
          "name": "_accountAddress",
          "type": "address"
        },
        {
          "internalType": "uint256",
          "name": "_salary",
          "type": "uint256"
        }
      ],
      "name": "addEmployee",
      "outputs": [],
      "payable": false,
      "stateMutability": "nonpayable",
      "type": "function"
    },
    {
      "constant": false,
      "inputs": [
        {
          "internalType": "address",
          "name": "_accountAddress",
          "type": "address"
        },
        {
          "internalType": "uint256",
          "name": "_newSalary",
          "type": "uint256"
        }
      ],
      "name": "updateSalary",
      "outputs": [],
      "payable": false,
      "stateMutability": "nonpayable",
      "type": "function"
    },
    {
      "constant": true,
      "inputs": [],
      "name": "getOwed",
      "outputs": [
        {
          "internalType": "uint256",
          "name": "owed",
          "type": "uint256"
        }
      ],
      "payable": false,
      "stateMutability": "view",
      "type": "function"
    },
    {
      "constant": false,
      "inputs": [
        {
          "internalType": "address",
          "name": "_accountAddress",
          "type": "address"
        }
      ],
      "name": "removeEmployee",
      "outputs": [],
      "payable": false,
      "stateMutability": "nonpayable",
      "type": "function"
    },
    {
      "constant": false,
      "inputs": [],
      "name": "payEmployees",
      "outputs": [],
      "payable": true,
      "stateMutability": "payable",
      "type": "function"
    },
    {
      "constant": false,
      "inputs": [
        {
          "internalType": "address",
          "name": "_accountAddress",
          "type": "address"
        }
      ],
      "name": "payEmployee",
      "outputs": [],
      "payable": true,
      "stateMutability": "payable",
      "type": "function"
    },
    {
      "constant": false,
      "inputs": [],
      "name": "destroy",
      "outputs": [],
      "payable": true,
      "stateMutability": "payable",
      "type": "function"
    }
  ],
  "bytecode": "0x60806040526040518060400160405280600f81526020017f546963546f6b656e506179726f6c6c00000000000000000000000000000000008152506000908051906020019062000051929190620001fe565b503480156200005f57600080fd5b506040516200266f3803806200266f833981810160405260408110156200008557600080fd5b8101908080516040519392919084640100000000821115620000a657600080fd5b83820191506020820185811115620000bd57600080fd5b8251866001820283011164010000000082111715620000db57600080fd5b8083526020830192505050908051906020019080838360005b8381101562000111578082015181840152602081019050620000f4565b50505050905090810190601f1680156200013f5780820380516001836020036101000a031916815260200191505b506040526020018051906020019092919050505081600190805190602001906200016b929190620001fe565b5033600260006101000a81548173ffffffffffffffffffffffffffffffffffffffff021916908373ffffffffffffffffffffffffffffffffffffffff16021790555080600360006101000a81548173ffffffffffffffffffffffffffffffffffffffff021916908373ffffffffffffffffffffffffffffffffffffffff16021790555060006004819055505050620002ad565b828054600181600116156101000203166002900490600052602060002090601f016020900481019282601f106200024157805160ff191683800117855562000272565b8280016001018555821562000272579182015b828111156200027157825182559160200191906001019062000254565b5b50905062000281919062000285565b5090565b620002aa91905b80821115620002a65760008160009055506001016200028c565b5090565b90565b6123b280620002bd6000396000f3fe6080604052600436106100e85760003560e01c8063a08a1b991161008a578063df62f41011610059578063df62f410146104c9578063e6120413146104f4578063e7fd9a13146105bc578063f851a44014610617576100e8565b8063a08a1b9914610338578063a7fb79a914610342578063cd16abfb146103d2578063d108177a14610478576100e8565b80634755fa78116100c65780634755fa781461021c57806355a373d6146102475780637284e4161461029e57806383197ef01461032e576100e8565b806306fdde03146100ed5780631f50ad161461017d57806322003f10146101c1575b600080fd5b3480156100f957600080fd5b5061010261066e565b6040518080602001828103825283818151815260200191508051906020019080838360005b83811015610142578082015181840152602081019050610127565b50505050905090810190601f16801561016f5780820380516001836020036101000a031916815260200191505b509250505060405180910390f35b6101bf6004803603602081101561019357600080fd5b81019080803573ffffffffffffffffffffffffffffffffffffffff16906020019092919050505061070c565b005b3480156101cd57600080fd5b5061021a600480360360408110156101e457600080fd5b81019080803573ffffffffffffffffffffffffffffffffffffffff16906020019092919080359060200190929190505050610c0e565b005b34801561022857600080fd5b50610231610e21565b6040518082815260200191505060405180910390f35b34801561025357600080fd5b5061025c610fa2565b604051808273ffffffffffffffffffffffffffffffffffffffff1673ffffffffffffffffffffffffffffffffffffffff16815260200191505060405180910390f35b3480156102aa57600080fd5b506102b3610fc8565b6040518080602001828103825283818151815260200191508051906020019080838360005b838110156102f35780820151818401526020810190506102d8565b50505050905090810190601f1680156103205780820380516001836020036101000a031916815260200191505b509250505060405180910390f35b610336611066565b005b610340611164565b005b34801561034e57600080fd5b5061037b6004803603602081101561036557600080fd5b810190808035906020019092919050505061179b565b604051808581526020018473ffffffffffffffffffffffffffffffffffffffff1673ffffffffffffffffffffffffffffffffffffffff16815260200183815260200182815260200194505050505060405180910390f35b3480156103de57600080fd5b50610421600480360360208110156103f557600080fd5b81019080803573ffffffffffffffffffffffffffffffffffffffff1690602001909291905050506117f8565b604051808581526020018473ffffffffffffffffffffffffffffffffffffffff1673ffffffffffffffffffffffffffffffffffffffff16815260200183815260200182815260200194505050505060405180910390f35b34801561048457600080fd5b506104c76004803603602081101561049b57600080fd5b81019080803573ffffffffffffffffffffffffffffffffffffffff169060200190929190505050611848565b005b3480156104d557600080fd5b506104de611d16565b6040518082815260200191505060405180910390f35b34801561050057600080fd5b506105ba6004803603602081101561051757600080fd5b810190808035906020019064010000000081111561053457600080fd5b82018360208201111561054657600080fd5b8035906020019184600183028401116401000000008311171561056857600080fd5b91908080601f016020809104026020016040519081016040528093929190818152602001838380828437600081840152601f19601f820116905080830192505050505050509192919290505050611d1c565b005b3480156105c857600080fd5b50610615600480360360408110156105df57600080fd5b81019080803573ffffffffffffffffffffffffffffffffffffffff16906020019092919080359060200190929190505050611df9565b005b34801561062357600080fd5b5061062c6121c1565b604051808273ffffffffffffffffffffffffffffffffffffffff1673ffffffffffffffffffffffffffffffffffffffff16815260200191505060405180910390f35b60008054600181600116156101000203166002900480601f0160208091040260200160405190810160405280929190818152602001828054600181600116156101000203166002900480156107045780601f106106d957610100808354040283529160200191610704565b820191906000526020600020905b8154815290600101906020018083116106e757829003601f168201915b505050505081565b3373ffffffffffffffffffffffffffffffffffffffff16600260009054906101000a900473ffffffffffffffffffffffffffffffffffffffff1673ffffffffffffffffffffffffffffffffffffffff16146107cf576040517f08c379a00000000000000000000000000000000000000000000000000000000081526004018080602001828103825260208152602001807f66756e6374696f6e206d7573742062652063616c6c65642062792061646d696e81525060200191505060405180910390fd5b60004390506107dc6121e7565b600660008473ffffffffffffffffffffffffffffffffffffffff1673ffffffffffffffffffffffffffffffffffffffff168152602001908152602001600020604051806080016040529081600082015481526020016001820160009054906101000a900473ffffffffffffffffffffffffffffffffffffffff1673ffffffffffffffffffffffffffffffffffffffff1673ffffffffffffffffffffffffffffffffffffffff168152602001600282015481526020016003820154815250509050600061168082606001518403836040015102816108b557fe5b04905080600360009054906101000a900473ffffffffffffffffffffffffffffffffffffffff1673ffffffffffffffffffffffffffffffffffffffff1663dd62ed3e600260009054906101000a900473ffffffffffffffffffffffffffffffffffffffff16306040518363ffffffff1660e01b8152600401808373ffffffffffffffffffffffffffffffffffffffff1673ffffffffffffffffffffffffffffffffffffffff1681526020018273ffffffffffffffffffffffffffffffffffffffff1673ffffffffffffffffffffffffffffffffffffffff1681526020019250505060206040518083038186803b1580156109ae57600080fd5b505afa1580156109c2573d6000803e3d6000fd5b505050506040513d60208110156109d857600080fd5b810190808051906020019092919050505010156109f457600080fd5b600360009054906101000a900473ffffffffffffffffffffffffffffffffffffffff1673ffffffffffffffffffffffffffffffffffffffff166323b872dd600260009054906101000a900473ffffffffffffffffffffffffffffffffffffffff1686846040518463ffffffff1660e01b8152600401808473ffffffffffffffffffffffffffffffffffffffff1673ffffffffffffffffffffffffffffffffffffffff1681526020018373ffffffffffffffffffffffffffffffffffffffff1673ffffffffffffffffffffffffffffffffffffffff1681526020018281526020019350505050602060405180830381600087803b158015610af357600080fd5b505af1158015610b07573d6000803e3d6000fd5b505050506040513d6020811015610b1d57600080fd5b810190808051906020019092919050505050826005836000015181548110610b4157fe5b90600052602060002090600402016003018190555082600660008673ffffffffffffffffffffffffffffffffffffffff1673ffffffffffffffffffffffffffffffffffffffff168152602001908152602001600020600301819055507f6ae7dccce71d54f2dc855f8e5cb1b9c56e2ed2765a57218d971eaef6bdf4459b8482604051808373ffffffffffffffffffffffffffffffffffffffff1673ffffffffffffffffffffffffffffffffffffffff1681526020018281526020019250505060405180910390a150505050565b3373ffffffffffffffffffffffffffffffffffffffff16600260009054906101000a900473ffffffffffffffffffffffffffffffffffffffff1673ffffffffffffffffffffffffffffffffffffffff1614610cd1576040517f08c379a00000000000000000000000000000000000000000000000000000000081526004018080602001828103825260208152602001807f66756e6374696f6e206d7573742062652063616c6c65642062792061646d696e81525060200191505060405180910390fd5b8173ffffffffffffffffffffffffffffffffffffffff16600660008473ffffffffffffffffffffffffffffffffffffffff1673ffffffffffffffffffffffffffffffffffffffff16815260200190815260200160002060010160009054906101000a900473ffffffffffffffffffffffffffffffffffffffff1673ffffffffffffffffffffffffffffffffffffffff1614610d6b57600080fd5b80600660008473ffffffffffffffffffffffffffffffffffffffff1673ffffffffffffffffffffffffffffffffffffffff168152602001908152602001600020600201819055507f65de7774b55bb06d1f13ec2d49878a2d3a241efdefed8decedeef7f7fcf5191f8282604051808373ffffffffffffffffffffffffffffffffffffffff1673ffffffffffffffffffffffffffffffffffffffff1681526020018281526020019250505060405180910390a15050565b60003373ffffffffffffffffffffffffffffffffffffffff16600660003373ffffffffffffffffffffffffffffffffffffffff1673ffffffffffffffffffffffffffffffffffffffff16815260200190815260200160002060010160009054906101000a900473ffffffffffffffffffffffffffffffffffffffff1673ffffffffffffffffffffffffffffffffffffffff1614610f09576040517f08c379a000000000000000000000000000000000000000000000000000000000815260040180806020018281038252602381526020018061235b6023913960400191505060405180910390fd5b611680600660003373ffffffffffffffffffffffffffffffffffffffff1673ffffffffffffffffffffffffffffffffffffffff168152602001908152602001600020600301544303600660003373ffffffffffffffffffffffffffffffffffffffff1673ffffffffffffffffffffffffffffffffffffffff168152602001908152602001600020600201540281610f9c57fe5b04905090565b600360009054906101000a900473ffffffffffffffffffffffffffffffffffffffff1681565b60018054600181600116156101000203166002900480601f01602080910402602001604051908101604052809291908181526020018280546001816001161561010002031660029004801561105e5780601f106110335761010080835404028352916020019161105e565b820191906000526020600020905b81548152906001019060200180831161104157829003601f168201915b505050505081565b3373ffffffffffffffffffffffffffffffffffffffff16600260009054906101000a900473ffffffffffffffffffffffffffffffffffffffff1673ffffffffffffffffffffffffffffffffffffffff1614611129576040517f08c379a00000000000000000000000000000000000000000000000000000000081526004018080602001828103825260208152602001807f66756e6374696f6e206d7573742062652063616c6c65642062792061646d696e81525060200191505060405180910390fd5b600260009054906101000a900473ffffffffffffffffffffffffffffffffffffffff1673ffffffffffffffffffffffffffffffffffffffff16ff5b3373ffffffffffffffffffffffffffffffffffffffff16600260009054906101000a900473ffffffffffffffffffffffffffffffffffffffff1673ffffffffffffffffffffffffffffffffffffffff1614611227576040517f08c379a00000000000000000000000000000000000000000000000000000000081526004018080602001828103825260208152602001807f66756e6374696f6e206d7573742062652063616c6c65642062792061646d696e81525060200191505060405180910390fd5b6000439050600080905060008090505b6005805490508110156113605761124c6121e7565b6005828154811061125957fe5b9060005260206000209060040201604051806080016040529081600082015481526020016001820160009054906101000a900473ffffffffffffffffffffffffffffffffffffffff1673ffffffffffffffffffffffffffffffffffffffff1673ffffffffffffffffffffffffffffffffffffffff1681526020016002820154815260200160038201548152505090506000611680826060015186038360400151028161130157fe5b0490508060076000846020015173ffffffffffffffffffffffffffffffffffffffff1673ffffffffffffffffffffffffffffffffffffffff16815260200190815260200160002081905550808401935050508080600101915050611237565b5080600360009054906101000a900473ffffffffffffffffffffffffffffffffffffffff1673ffffffffffffffffffffffffffffffffffffffff1663dd62ed3e600260009054906101000a900473ffffffffffffffffffffffffffffffffffffffff16306040518363ffffffff1660e01b8152600401808373ffffffffffffffffffffffffffffffffffffffff1673ffffffffffffffffffffffffffffffffffffffff1681526020018273ffffffffffffffffffffffffffffffffffffffff1673ffffffffffffffffffffffffffffffffffffffff1681526020019250505060206040518083038186803b15801561145757600080fd5b505afa15801561146b573d6000803e3d6000fd5b505050506040513d602081101561148157600080fd5b8101908080519060200190929190505050101561149d57600080fd5b60008090505b60058054905081101561178f576000600582815481106114bf57fe5b906000526020600020906004020160010160009054906101000a900473ffffffffffffffffffffffffffffffffffffffff169050600360009054906101000a900473ffffffffffffffffffffffffffffffffffffffff1673ffffffffffffffffffffffffffffffffffffffff166323b872dd600260009054906101000a900473ffffffffffffffffffffffffffffffffffffffff1683600760008673ffffffffffffffffffffffffffffffffffffffff1673ffffffffffffffffffffffffffffffffffffffff168152602001908152602001600020546040518463ffffffff1660e01b8152600401808473ffffffffffffffffffffffffffffffffffffffff1673ffffffffffffffffffffffffffffffffffffffff1681526020018373ffffffffffffffffffffffffffffffffffffffff1673ffffffffffffffffffffffffffffffffffffffff1681526020018281526020019350505050602060405180830381600087803b15801561163157600080fd5b505af1158015611645573d6000803e3d6000fd5b505050506040513d602081101561165b57600080fd5b810190808051906020019092919050505050836005838154811061167b57fe5b90600052602060002090600402016003018190555083600660008373ffffffffffffffffffffffffffffffffffffffff1673ffffffffffffffffffffffffffffffffffffffff168152602001908152602001600020600301819055507f6ae7dccce71d54f2dc855f8e5cb1b9c56e2ed2765a57218d971eaef6bdf4459b81600760008473ffffffffffffffffffffffffffffffffffffffff1673ffffffffffffffffffffffffffffffffffffffff16815260200190815260200160002054604051808373ffffffffffffffffffffffffffffffffffffffff1673ffffffffffffffffffffffffffffffffffffffff1681526020018281526020019250505060405180910390a15080806001019150506114a3565b50816004819055505050565b600581815481106117a857fe5b90600052602060002090600402016000915090508060000154908060010160009054906101000a900473ffffffffffffffffffffffffffffffffffffffff16908060020154908060030154905084565b60066020528060005260406000206000915090508060000154908060010160009054906101000a900473ffffffffffffffffffffffffffffffffffffffff16908060020154908060030154905084565b3373ffffffffffffffffffffffffffffffffffffffff16600260009054906101000a900473ffffffffffffffffffffffffffffffffffffffff1673ffffffffffffffffffffffffffffffffffffffff161461190b576040517f08c379a00000000000000000000000000000000000000000000000000000000081526004018080602001828103825260208152602001807f66756e6374696f6e206d7573742062652063616c6c65642062792061646d696e81525060200191505060405180910390fd5b8073ffffffffffffffffffffffffffffffffffffffff16600660008373ffffffffffffffffffffffffffffffffffffffff1673ffffffffffffffffffffffffffffffffffffffff16815260200190815260200160002060010160009054906101000a900473ffffffffffffffffffffffffffffffffffffffff1673ffffffffffffffffffffffffffffffffffffffff16146119a557600080fd5b6119ad6121e7565b600660008373ffffffffffffffffffffffffffffffffffffffff1673ffffffffffffffffffffffffffffffffffffffff168152602001908152602001600020604051806080016040529081600082015481526020016001820160009054906101000a900473ffffffffffffffffffffffffffffffffffffffff1673ffffffffffffffffffffffffffffffffffffffff1673ffffffffffffffffffffffffffffffffffffffff168152602001600282015481526020016003820154815250509050611a756121e7565b600560016005805490500381548110611a8a57fe5b9060005260206000209060040201604051806080016040529081600082015481526020016001820160009054906101000a900473ffffffffffffffffffffffffffffffffffffffff1673ffffffffffffffffffffffffffffffffffffffff1673ffffffffffffffffffffffffffffffffffffffff1681526020016002820154815260200160038201548152505090508160000151816000018181525050806005836000015181548110611b3957fe5b90600052602060002090600402016000820151816000015560208201518160010160006101000a81548173ffffffffffffffffffffffffffffffffffffffff021916908373ffffffffffffffffffffffffffffffffffffffff1602179055506040820151816002015560608201518160030155905050600560016005805490500381548110611bc457fe5b90600052602060002090600402016000808201600090556001820160006101000a81549073ffffffffffffffffffffffffffffffffffffffff0219169055600282016000905560038201600090555050600660008473ffffffffffffffffffffffffffffffffffffffff1673ffffffffffffffffffffffffffffffffffffffff1681526020019081526020016000206000808201600090556001820160006101000a81549073ffffffffffffffffffffffffffffffffffffffff02191690556002820160009055600382016000905550506001600581818054905003915081611cad9190612225565b507f4dd964410b55ced52630c6bce62bff42cd556fb5be94b43ebccfffbd510d2c0d83604051808273ffffffffffffffffffffffffffffffffffffffff1673ffffffffffffffffffffffffffffffffffffffff16815260200191505060405180910390a1505050565b60045481565b3373ffffffffffffffffffffffffffffffffffffffff16600260009054906101000a900473ffffffffffffffffffffffffffffffffffffffff1673ffffffffffffffffffffffffffffffffffffffff1614611ddf576040517f08c379a00000000000000000000000000000000000000000000000000000000081526004018080602001828103825260208152602001807f66756e6374696f6e206d7573742062652063616c6c65642062792061646d696e81525060200191505060405180910390fd5b8060019080519060200190611df5929190612257565b5050565b3373ffffffffffffffffffffffffffffffffffffffff16600260009054906101000a900473ffffffffffffffffffffffffffffffffffffffff1673ffffffffffffffffffffffffffffffffffffffff1614611ebc576040517f08c379a00000000000000000000000000000000000000000000000000000000081526004018080602001828103825260208152602001807f66756e6374696f6e206d7573742062652063616c6c65642062792061646d696e81525060200191505060405180910390fd5b8173ffffffffffffffffffffffffffffffffffffffff16600660008473ffffffffffffffffffffffffffffffffffffffff1673ffffffffffffffffffffffffffffffffffffffff16815260200190815260200160002060010160009054906101000a900473ffffffffffffffffffffffffffffffffffffffff1673ffffffffffffffffffffffffffffffffffffffff161415611f5757600080fd5b8173ffffffffffffffffffffffffffffffffffffffff16600260009054906101000a900473ffffffffffffffffffffffffffffffffffffffff1673ffffffffffffffffffffffffffffffffffffffff161415611fb257600080fd5b6000439050611fbf6121e7565b604051806080016040528060058054905081526020018573ffffffffffffffffffffffffffffffffffffffff16815260200184815260200183815250905080600660008673ffffffffffffffffffffffffffffffffffffffff1673ffffffffffffffffffffffffffffffffffffffff1681526020019081526020016000206000820151816000015560208201518160010160006101000a81548173ffffffffffffffffffffffffffffffffffffffff021916908373ffffffffffffffffffffffffffffffffffffffff16021790555060408201518160020155606082015181600301559050507f6f816bf411c9bb2dd1940470e84465bc38e5610885bda76c2aa34a9db444a20e600580549050858585604051808581526020018473ffffffffffffffffffffffffffffffffffffffff1673ffffffffffffffffffffffffffffffffffffffff16815260200183815260200182815260200194505050505060405180910390a1600581908060018154018082558091505090600182039060005260206000209060040201600090919290919091506000820151816000015560208201518160010160006101000a81548173ffffffffffffffffffffffffffffffffffffffff021916908373ffffffffffffffffffffffffffffffffffffffff160217905550604082015181600201556060820151816003015550505050505050565b600260009054906101000a900473ffffffffffffffffffffffffffffffffffffffff1681565b604051806080016040528060008152602001600073ffffffffffffffffffffffffffffffffffffffff16815260200160008152602001600081525090565b8154818355818111156122525760040281600402836000526020600020918201910161225191906122d7565b5b505050565b828054600181600116156101000203166002900490600052602060002090601f016020900481019282601f1061229857805160ff19168380011785556122c6565b828001600101855582156122c6579182015b828111156122c55782518255916020019190600101906122aa565b5b5090506122d39190612335565b5090565b61233291905b8082111561232e576000808201600090556001820160006101000a81549073ffffffffffffffffffffffffffffffffffffffff021916905560028201600090556003820160009055506004016122dd565b5090565b90565b61235791905b8082111561235357600081600090555060010161233b565b5090565b9056fe66756e6374696f6e206d7573742062652063616c6c656420627920656d706c6f796565a265627a7a72315820374a785bdc74a630e26546b936435bf5b6c866992c40e703b53115dd6ba2d72d64736f6c634300050c0032",
  "source": "pragma solidity ^0.5.11;\r\n\r\nimport \"./TicToken.sol\";\r\n\r\ncontract TicTokenPayroll\r\n{\r\n    string public name = \"TicTokenPayroll\";\r\n    string public description;\r\n    address payable public admin;\r\n    TicToken public tokenContract;\r\n    uint private constant blocksInADay = 5760;\r\n    uint256 public lastPay;\r\n\r\n    struct Employee {\r\n        uint256 id;\r\n        address accountAddress;\r\n        uint256 salary;\r\n        uint256 payDay;\r\n    }\r\n\r\n    Employee[] public employeeIndex;\r\n    mapping(address => Employee) public employeeList;\r\n    mapping(address => uint256) private salaries;\r\n    \r\n    //Events\r\n    event NewEmployee(uint256 _id, address _accountAddress, uint256 _salary, uint256 _payday);\r\n    event SalaryChange(address _accountAddress, uint256 _newSalary);\r\n    event FireEmployee(address _accountAddress);\r\n    event PayEmployee(address _accountAddress, uint256 _salary);\r\n    //Modifiers\r\n    modifier onlyAdmin()\r\n    {\r\n        require(admin == msg.sender, \"function must be called by admin\");\r\n        _;\r\n    }\r\n    \r\n    modifier onlyEmployee()\r\n    {\r\n        require(employeeList[msg.sender].accountAddress == msg.sender, \"function must be called by employee\");\r\n        _;\r\n    }\r\n\r\n    constructor (string memory _description, TicToken _tokenContract) public\r\n    {\r\n        description = _description;\r\n        admin = msg.sender;\r\n        tokenContract = _tokenContract;\r\n        lastPay = 0;\r\n    }\r\n   \r\n    function changeDescription(string memory _description) public onlyAdmin {\r\n        description = _description;\r\n    }\r\n\r\n    function addEmployee(address _accountAddress, uint256 _salary) public onlyAdmin\r\n    {\r\n        require(employeeList[_accountAddress].accountAddress != _accountAddress);\r\n        require(admin != _accountAddress);\r\n        uint256 currentTime = block.number;\r\n        Employee memory newEmployee = Employee(employeeIndex.length, _accountAddress, _salary, currentTime);\r\n        employeeList[_accountAddress] = newEmployee;\r\n        emit NewEmployee(employeeIndex.length, _accountAddress, _salary, currentTime);\r\n        employeeIndex.push(newEmployee);\r\n    }\r\n\r\n    function updateSalary(address _accountAddress, uint256 _newSalary) public onlyAdmin\r\n    {\r\n        require(employeeList[_accountAddress].accountAddress == _accountAddress);\r\n        employeeList[_accountAddress].salary = _newSalary;\r\n        emit SalaryChange(_accountAddress, _newSalary);\r\n    }\r\n\r\n    function getOwed() public view onlyEmployee returns(uint owed)\r\n    {\r\n        owed = (employeeList[msg.sender].salary * (block.number - employeeList[msg.sender].payDay)) / blocksInADay;\r\n    }\r\n    //(employeeList[msg.sender].salary * (block.number - employeeList[msg.sender].payDay)) / blocksInADay;\r\n    function removeEmployee(address _accountAddress) public onlyAdmin {\r\n        require(employeeList[_accountAddress].accountAddress == _accountAddress);\r\n        Employee memory toBeRemoved = employeeList[_accountAddress];\r\n        Employee memory lastEmployee = employeeIndex[employeeIndex.length - 1];\r\n        lastEmployee.id = toBeRemoved.id;\r\n        employeeIndex[toBeRemoved.id] = lastEmployee;\r\n        delete employeeIndex[employeeIndex.length - 1];\r\n        delete employeeList[_accountAddress];\r\n        employeeIndex.length -= 1;\r\n        emit FireEmployee(_accountAddress);\r\n    }\r\n    \r\n    function payEmployees() public onlyAdmin payable{\r\n        uint256 currentBlock = block.number;\r\n        uint256 totalAmount = 0;\r\n        \r\n        for(uint i = 0; i<employeeIndex.length; i++)\r\n        {\r\n            Employee memory toBePaid = employeeIndex[i];\r\n            uint256 amount = (toBePaid.salary * (currentBlock - toBePaid.payDay)) / blocksInADay;\r\n            salaries[toBePaid.accountAddress] = amount;\r\n            totalAmount += amount;\r\n        }\r\n        require(tokenContract.allowance(admin,address(this)) >= totalAmount);\r\n        for(uint j = 0; j < employeeIndex.length; j++)\r\n        {\r\n            address a = employeeIndex[j].accountAddress;\r\n            tokenContract.transferFrom(admin, a, salaries[a]);\r\n            employeeIndex[j].payDay = currentBlock;\r\n            employeeList[a].payDay = currentBlock;\r\n            emit PayEmployee(a, salaries[a]);\r\n        }\r\n        lastPay = currentBlock;\r\n    }\r\n\r\n    function payEmployee(address _accountAddress) public onlyAdmin payable{\r\n        uint256 currentBlock = block.number;\r\n        Employee memory toBePaid = employeeList[_accountAddress];\r\n        uint256 amount = (toBePaid.salary * (currentBlock - toBePaid.payDay)) / blocksInADay;\r\n        require(tokenContract.allowance(admin,address(this)) >= amount);\r\n        tokenContract.transferFrom(admin, _accountAddress, amount);\r\n        employeeIndex[toBePaid.id].payDay = currentBlock;\r\n        employeeList[_accountAddress].payDay = currentBlock;\r\n        emit PayEmployee(_accountAddress, amount);\r\n    }\r\n\r\n    function destroy() public payable onlyAdmin {\r\n        selfdestruct(admin);\r\n    }\r\n}",
  "sourcePath": "C:/Users/Sarper/Desktop/test_token/contracts/TicTokenPayroll.sol",
  "compiler": {
    "name": "solc",
    "version": "0.5.12+commit.7709ece9.Emscripten.clang"
  },
  "schemaVersion": "3.0.20",
  "updatedAt": "2020-02-03T08:38:11.563Z",
  "networkType": "ethereum",
  "devdoc": {
    "methods": {}
  },
  "userdoc": {
    "methods": {}
  }
}