{
  "contractName": "TicToken",
  "abi": [
    {
      "inputs": [],
      "payable": false,
      "stateMutability": "nonpayable",
      "type": "constructor"
    },
    {
      "constant": true,
      "inputs": [],
      "name": "totalSupply",
      "outputs": [
        {
          "internalType": "uint256",
          "name": "",
          "type": "uint256"
        }
      ],
      "payable": false,
      "stateMutability": "view",
      "type": "function"
    }
  ],
  "bytecode": "0x6080604052348015600f57600080fd5b50620f42406000819055506084806100286000396000f3fe6080604052348015600f57600080fd5b506004361060285760003560e01c806318160ddd14602d575b600080fd5b60336049565b6040518082815260200191505060405180910390f35b6000548156fea265627a7a72315820b8dfbc76027ce16076fb01d0d3596af0c28995257e9a94e2cad9e76d6d10a6dd64736f6c634300050c0032",
  "source": "pragma solidity ^0.5.12;\r\n\r\ncontract TicToken \r\n{\r\n    uint256 public totalSupply;\r\n    // Constructor\r\n    constructor () public {\r\n        // Set the total number of tokens\r\n        totalSupply = 1000000;\r\n    }\r\n    \r\n    // Read the total number of tokens\r\n}",
  "sourcePath": "C:/Users/Sarper/Desktop/test_token/contracts/TicToken.sol",
  "compiler": {
    "name": "solc",
    "version": "0.5.12+commit.7709ece9.Emscripten.clang"
  },
  "schemaVersion": "3.0.19",
  "updatedAt": "2019-11-24T19:55:21.975Z",
  "networkType": "ethereum",
  "devdoc": {
    "methods": {}
  },
  "userdoc": {
    "methods": {}
  }
}